:020000040800F2
:10000000600A002031020008F7040008EF0400082D
:10001000F3040008E9040008770900080000000064
:10002000000000000000000000000000FB040008C9
:10003000ED04000800000000F904000811060008A3
:100040004B0200084B0200084B0200084B0200085C
:100050004B0200084B0200084B0200084B0200084C
:100060004B0200084B0200084B0200084B0200083C
:100070004B0200084B0200084B0200084B0200082C
:100080004B0200084B0200084B0200084B0200081C
:100090004B0200084B0200084B0200084B0200080C
:1000A0004B0200084B0200084B0200084B020008FC
:1000B0004B0200084B0200084B0200084B020008EC
:1000C0004B0200084B0200084B0200084B020008DC
:1000D0004B020008050700088D07000811080008FA
:1000E0004B0200084B0200084B0200084B020008BC
:1000F0004B0200084B0200084B0200084B020008AC
:100100004B0200084B0200084B0200084B0200089B
:100110004B0200087D0600084B0200084B02000855
:100120004B0200084B0200084B0200084B0200087B
:100130004B0200084B0200084B0200084B0200086B
:100140004B0200084B0200084B0200084B0200085B
:100150004B0200084B0200084B02000895080008FB
:100160004B0200084B0200084B0200084B0200083B
:100170004B0200084B0200084B0200084B0200082B
:100180004B0200084B02000800F002F800F041F8B2
:100190000AA090E8000C82448344AAF10107DA45E2
:1001A00001D100F036F8AFF2090EBAE80F0013F0F3
:1001B000010F18BFFB1A43F001031847D4080000D1
:1001C000F4080000103A24BF78C878C1FAD8520762
:1001D00024BF30C830C144BF04680C6070470000C1
:1001E0000023002400250026103A28BF78C1FBD840
:1001F000520728BF30C148BF0B607047642900F028
:100200007980002070471FB500F03CFC1FBD10B581
:1002100010BD00F037F91146FFF7F5FF00F01EFCA6
:1002200000F055F903B4FFF7F2FF03BC00F0A5FBA3
:100230000948804709480047FEE7FEE7FEE7FEE77A
:10024000FEE7FEE7FEE7FEE7FEE7FEE704480549B6
:10025000054A064B70470000150600088901000892
:1002600060040020600A0020600600206006002074
:10027000704700000FB4044910B503AA029800F0BB
:10028000D3F810BC5DF814FB040000202DE9F04108
:100290000E460446002020622046E168884730B3BD
:1002A000252805D0D4E901219047206A401CF2E7B7
:1002B000E168204600278847050018D0A5F14100D5
:1002C000192802D820354FF40067324629462046C7
:1002D0002760FFF793FF40B1012804D0F61D26F0F8
:1002E00007060836D8E7361DD6E72846DAE7206A3B
:1002F000BDE8F0812DE9F04106460024106875291B
:10030000314616A510D0AFF30080002802DA404233
:1003100013A507E031688A0701D512A502E0490755
:1003200004D511A5012401E0AFF3008000210A22C9
:1003300006F1240709E0B0FBF2FCB0FBF2F302FB8C
:100340001C00303078541846491C0028F3D123464D
:100350002A463046BDE8F04100F00CB8000000002D
:100360002D0000002B0000002000000070477047A7
:10037000704770472DE9F0470D469946924604466E
:1003800000F124080168880604D5E06921F0100115
:10039000216000E00120A84201DD471B00E00027AA
:1003A000A1697A1902EB0900081AA0612078C00639
:1003B00002D42046AFF30080002608E0D4E90121F2
:1003C0001AF806009047206A401C761C20624E45B1
:1003D000F4DB2078C0060AD52046AFF3008006E0A3
:1003E000D4E9012130209047206A401C2062381E49
:1003F000A7F10107F4DC07E0D4E9012118F80500B2
:100400009047206A401C2062281EA5F10105F3DCFC
:100410002046AFF300802078000602D50220BDE818
:10042000F0870120FBE70000074B70B50D467B44C9
:1004300000F011F80446284600F020F810B14FF003
:10044000FF3070BD204670BD0F06000001694A1CD8
:1004500002610878704700B58FB0CDE90131002105
:10046000059105497944CDE9031011466846FFF727
:100470000DFF0FB000BD0000E5FFFFFF007B00F0A7
:1004800080007047754600F02BF8AE4605006946BF
:10049000534620F00700854618B020B5FFF7D6FE7A
:1004A000BDE820404FF000064FF000074FF0000875
:1004B0004FF0000B21F00701AC46ACE8C009ACE8F6
:1004C000C009ACE8C009ACE8C0098D46704710B55A
:1004D0000446AFF300802046BDE81040FFF7A2BEFF
:1004E00000487047FC03002000BFFEE7704700BFD4
:1004F000FEE700BFFEE77047704770470CB500206D
:10050000019000903448006840F48030324908601F
:1005100000BF3148006800F4003000900198401C92
:100520000190009818B90198B0F5A04FF1D12A4870
:10053000006800F4003010B10120009001E00020BC
:1005400000900098012846D123484030006840F0D0
:1005500080502149403108602048006840F4404004
:100560001E4908601C48083000681B4908310860B3
:100570000846006840F4004008600846006840F4FF
:10058000A05008601648091F0860081F006840F066
:100590008070091F086000BF0F48006800F00070FD
:1005A0000028F9D040F205700E4908600A4808306A
:1005B000006820F003000849083108600846006818
:1005C00040F00200086000BF03480830006800F0F7
:1005D0000C000828F8D10CBD003802400070004023
:1005E00008544007003C0240042808D14FF0E021A5
:1005F000096941F004014FF0E022116107E04FF07A
:10060000E021096921F004014FF0E02211617047F7
:100610007047000010B51548006840F47000134999
:1006200008601348006840F001001149086000208C
:100630000F49083108600E4800680E4908400C490F
:1006400008600D48091D0860081F006820F480201C
:10065000091F0860002006490C310860FFF74EFFB3
:100660004FF0006001498039086010BD88ED00E05E
:1006700000380240FFFFF6FE1030002410B540F2B3
:1006800025511C4800F048F998B31B4800F06EF95A
:10069000C4B21A48008800F4004050BB17480088D4
:1006A00000F4804060B10A2C03D000201349088078
:1006B0001FE01248008840F400401049088018E00C
:1006C0000D2C05D10D48008840F480400B4908806E
:1006D0000A480088C0F30D0009490C5407480088F7
:1006E000401C0649088008460088C72801DD002014
:1006F000088010BD00500040004800400E0000205F
:100700006C02002010B540F225511D4800F004F99C
:1007100010B31B4800F02AF9C4B21A48008800F44C
:100720000040C8B91748008800F4804060B10A2C26
:1007300003D000201349088020E01248008840F4CC
:1007400000401049088019E00D2C06D10D480088A2
:1007500040F480400B49088010E00A480088C0F34C
:100760000D0009490C5407480088401C05490880C1
:1007700008460088C72801DD0020088010BD000061
:1007800000100140080000201400002010B540F2C5
:1007900025511C4800F0C0F898B31A4800F0E6F85C
:1007A000C4B21948008800F4004050BB16480088C5
:1007B00000F4804060B10A2C03D000201249088068
:1007C0001FE01148008840F400400F49088018E0FD
:1007D0000D2C05D10C48008840F480400A4908805F
:1007E00009480088C0F30D0008490C5406480088E9
:1007F000401C0549088008460088C72801DD002004
:10080000088010BD004400400A000020DC000020E9
:1008100010B540F225511C4800F07EF898B31A48F4
:1008200000F0A4F8C4B21948008800F4004050BB9E
:100830001648008800F4804060B10A2C03D00020E4
:10084000124908801FE01148008840F400400F4919
:10085000088018E00D2C05D10C48008840F4804039
:100860000A49088009480088C0F30D0008490C5463
:1008700006480088401C0549088008460088C728AB
:1008800001DD0020088010BD004800400C00002061
:10089000A401002010B540F225511C4800F03CF89E
:1008A00098B31A4800F062F8C4B21948008800F4FE
:1008B000004050BB1648008800F4804060B10A2C0C
:1008C00003D00020124908801FE01148008840F43E
:1008D00000400F49088018E00D2C05D10C48008815
:1008E00040F480400A49088009480088C0F30D00A0
:1008F00008490C5406480088401C054908800846F1
:100900000088C72801DD0020088010BD00140140C8
:10091000100000203403002070B50246002400239C
:100920000025002040F66A16B14200D100BFC1F395
:10093000421501F01F03012606FA03F3012D02D12F
:100940009689334006E0022D02D1168A334001E039
:10095000968A33400C12012606FA04F416883440B5
:1009600013B10CB1012000E0002070BD0146888861
:10097000C0F30800704700BFFEE700BF70470000EB
:1009800010B504466FF00400FFF72EFEE11704EBEC
:100990005171C1F3C701074A11701046007800EB8E
:1009A0004001C1EBC0104FF6FF7101EAC0000249DF
:1009B000088010BD000000200200002070B5044631
:1009C0004FF4077094FBF0F0C6B24FF4077094FB3D
:1009D000F0F100FB114085B205E04FF4077000F024
:1009E00009F8701EC6B2002EF7D115B1284600F0E6
:1009F00001F870BD0146114A12884A434FF0E023C6
:100A00005A6100229A611A46126942F001021A6183
:100A100000BF4FF0E022106900F001021AB100F4AB
:100A20008032002AF5D04FF0E022126922F0010254
:100A30004FF0E0231A6100229A6170470200002003
:100A400000BF054A128802F04002002AF9D0C2B263
:100A5000014B9A8070470000001001400024542090
:100A6000FFF78EFF08E0214604A0FFF703FC4FF4D8
:100A7000FA70FFF7A3FF641CF5E70000743A2564E1
:100A80000D0A00004FF04070E1EE100A70470000C0
:100A9000B00A00080000002014000000C401000893
:100AA000C40A0008140000204C0A0000E0010008FD
:100AB0000000000000000000000000000000000036
:040AC0000000000032
:040000050800018965
:00000001FF
