:020000040800F2
:10000000E80B002069020008A9050008F5030008B4
:10001000A505000819030008BB1200080000000035
:10002000000000000000000000000000550A000869
:100030001D0300080000000029090008BD0B00088E
:10004000830200088302000883020008830200087C
:10005000830200088302000883020008830200086C
:10006000830200088302000883020008830200085C
:10007000830200088302000883020008830200084C
:10008000830200088302000883020008830200083C
:10009000830200088302000883020008830200082C
:1000A000830200088302000883020008830200081C
:1000B000830200088302000883020008830200080C
:1000C00083020008830200088302000883020008FC
:1000D000830200089D1000088302000883020008C4
:1000E00083020008830200088302000883020008DC
:1000F00083020008830200088302000883020008CC
:1001000083020008830200088302000883020008BB
:1001100083020008830200088302000883020008AB
:10012000830200088302000883020008830200089B
:10013000830200088302000883020008830200088B
:10014000830200088302000883020008830200087B
:10015000830200088302000883020008830200086B
:10016000830200088302000883020008830200085B
:10017000830200088302000883020008830200084B
:10018000830200088302000800F002F800F05CF827
:100190000AA090E8000C82448344AAF10107DA45E2
:1001A00001D100F051F8AFF2090EBAE80F0013F0D8
:1001B000010F18BFFB1A43F001031847941C0000FD
:1001C000B41C00000A444FF0000C10F8013B13F07F
:1001D000070408BF10F8014B1D1108BF10F8015BA0
:1001E000641E05D010F8016B641E01F8016BF9D193
:1001F00013F0080F1EBF10F8014BAD1C0C1B09D1EA
:100200006D1E58BF01F801CBFAD505E014F8016B5B
:1002100001F8016B6D1EF9D59142D6D370470000ED
:100220000023002400250026103A28BF78C1FBD8FF
:10023000520728BF30C148BF0B6070471FB501F09F
:10024000F5F91FBD10B510BD00F033F81146FFF7EA
:10025000F5FF01F02FF900F051F803B4FFF7F2FFBA
:1002600003BC01F09FF80000094880470948004797
:10027000FEE7FEE7FEE7FEE7FEE7FEE7FEE7FEE756
:10028000FEE7FEE704480549054A064B70470000B3
:10029000C10B000889010008E8050020E80B0020D8
:1002A000E8070020E8070020704770477047704754
:1002B0007047754600F02CF8AE4605006946534677
:1002C00020F00700854618B020B5FFF7DBFFBDE83A
:1002D00020404FF000064FF000074FF000084FF0AD
:1002E000000B21F00701AC46ACE8C009ACE8C0093E
:1002F000ACE8C009ACE8C0098D46704710B50446AB
:10030000AFF300802046BDE81040FFF7A6BF000015
:10031000004870478405002000BFFEE77047F0B535
:100320000A4600210023002400BF3DE0012505FA14
:1003300001F3156805EA03049C4234D105684F00B7
:100340000326BE40B543056015794E00B5400668EA
:10035000354305601579012D02D01579022D16D18E
:1003600085684F000326BE40B543856055794E0031
:10037000B540866835438560456801268E40B543A3
:100380004560456896798E40B6B235434560C5688C
:100390004F000326BE40B543C560D5794E00B54039
:1003A000C6683543C560491C1029BFD3F0BDF0B500
:1003B000002300244D07ED0E02FA05F3CE1000F1E4
:1003C000200555F826504E07F70E0F26BE40B543C0
:1003D000CF1000F1200646F82750CE1000F120057E
:1003E00055F8265045EA0304CE1000F1200545F8E3
:1003F0002640F0BD00BFFEE71CB50121082000F03B
:1004000095FA4FF44050009001208DF80400002030
:100410008DF8060003208DF8050001208DF80700F7
:1004200069460548FFF77BFF01200449086004493D
:10043000C1F8B0021CBD0000000C0240B482414271
:100440000080414270B504461548006820F04070B5
:10045000134908600846006840F08070086000207A
:1004600010490860002517E0E0090E49091F0860DF
:100470006006040E022000F0D1FF01200A49C1F8F5
:10048000B402022000F0CAFF0020064908600220E2
:1004900000F0C4FF681CC5B2082DE5DB70BD00008C
:1004A000000C0240B48241420080414210B50F4826
:1004B000006820F040700D4908600846006840F070
:1004C0008070086001200A4908600A49C1F8B40236
:1004D000042000F0A3FF002005490860042000F07C
:1004E0009DFF00200349C1F8B40210BD000C02407A
:1004F000B08241420080414210B50F48006820F0B0
:1005000040700D4908600846006840F0807008603F
:1005100000200A4908600A49C1F8B002042000F02E
:100520007DFF0120054908600549C1F8B00204209B
:1005300000F074FF10BD0000000C0240B482414284
:100540000080414210B500241348006820F040703C
:100550001149086008460068086001200F490860DA
:1005600000F05CFF01200E49C1F8B40200F056FF14
:1005700007E0601CC4B2FA2C03DDFFF7BDFF0120C9
:1005800010BD0648803800680028F2D10349091DD3
:10059000086000BFF4E70000000C0240B082414256
:1005A0000080414200BFFEE77047000070B50021A7
:1005B00000230F22C4781CB3174C246804F4E064B1
:1005C000C4F5E064C4F30721C1F10404E3B20A41B5
:1005D00044789C40E1B28478144021430C07210EFA
:1005E0000E4C05786155047804F01F050124AC40D9
:1005F00005786D11AD0005F1E025C5F8004109E071
:10060000047804F01F050124AC40054D06787611EE
:1006100045F8264070BD00000CED00E000E400E06D
:1006200080E100E010B5002000F03BF810BD2DE99E
:10063000F05F06460F4690461C46DDF828A04FF0B6
:10064000000BE11704EB5171C910A4EBC10131B9E2
:100650002046E11704EB5171C1F3C70506E02046BF
:10066000E11704EB5171C910491CCDB23D4614E0AD
:100670002946304600F0A3F8B1460AE059460BF18E
:10068000010B1AF8010000F051FE09F1010000F021
:10069000FF09C145F2DB681CC5B2A542E8DBBDE835
:1006A000F09F70B50646002415E004F1B001C8B211
:1006B00000F006FE002000F003FE102000F000FE17
:1006C000002504E0304600F031FE681CC5B2802DE4
:1006D000F8DB601CC4B2082CE7DB70BD10B5FFF777
:1006E0008BFE642000F07EFEAE2000F0E9FD2020AD
:1006F00000F0E6FD102000F0E3FDB02000F0E0FD8A
:10070000C82000F0DDFD002000F0DAFD102000F030
:10071000D7FD402000F0D4FD812000F0D1FDFF2066
:1007200000F0CEFDA12000F0CBFDA62000F0C8FD1A
:10073000A82000F0C5FD3F2000F0C2FDA42000F07D
:10074000BFFDD32000F0BCFD002000F0B9FDD52096
:1007500000F0B6FDF02000F0B3FDD92000F0B0FDB0
:10076000222000F0ADFDDA2000F0AAFD122000F0FA
:10077000A7FDDB2000F0A4FD202000F0A1FD8D20CE
:1007800000F09EFD142000F09BFDAF2000F098FDCE
:1007900010BD10B58D2000F093FD102000F090FDED
:1007A000AE2000F08DFD10BD10B58D2000F088FD4D
:1007B000142000F085FDAF2000F082FD10BD70B563
:1007C00004460D4605F1B001C8B200F079FD1021D4
:1007D00041EA141000F074FD04F00F0141F0010033
:1007E00000F06EFD70BD00002DE9F04180460E4620
:1007F000174600247D0131464046FFF7E0FF00BF69
:1008000006E00D49485D00F091FD6D1C601CC4B20E
:10081000102CF6DB701CC1B24046FFF7D0FF00245D
:1008200006E00549485D00F081FD6D1C601CC4B206
:10083000102CF6DBBDE8F081000000202DE9F04728
:100840000646894617469A464FF0000800240025C0
:10085000BAF1010F03D0BAF1020F5ED125E020E01A
:10086000785D203800F0FF087E2E04DD002609F1B7
:10087000010000F0FF0949463046FFF7A0FF0024C1
:1008800009E008EB4801264A02EB4101085D00F04F
:100890004DFD601CC4B2062CF3DBB01DC6B2681C53
:1008A000C5B2785D0028DBD137E032E0785D2038D2
:1008B00000F0FF08782E04DD002609F1010000F0A9
:1008C000FF0949463046FFF77AFF002407E004EBB2
:1008D0000811144A505C00F029FD601CC4B2082CB9
:1008E000F5DB09F10100C1B23046FFF768FF0024D3
:1008F00008E004EB081108310A4A505C00F016FDCC
:10090000601CC4B2082CF4DB06F10800C6B2681CF7
:10091000C5B2785D0028C9D100BF00BFBDE8F0872F
:10092000361600085E1800087047000029B1064A14
:1009300012680243044B1A6004E0034A12688243BF
:10094000014B1A60704700003038024029B1064A56
:1009500012680243044B1A6004E0034A126882439F
:10096000014B1A607047000044380240F0B5002186
:1009700000220024022500260223324F3F6807F0A0
:100980000C0121B1042905D0082937D105E02E4FEB
:10099000076036E02D4F076033E02A4F3F1F3F6866
:1009A000C7F38056274F3F1F3F6807F03F036EB1E4
:1009B000264FB7FBF3F7DFF88CC0ACF1040CDCF882
:1009C00000C0CCF3881C07FB0CF40CE01E4FB7FBF7
:1009D000F3F7DFF870C0ACF1040CDCF800C0CCF326
:1009E000881C07FB0CF4174F3F1F3F68C7F30147F4
:1009F0007F1C7D00B4FBF5F7076002E0124F076033
:100A000000BF00BF0F4F3F6807F0F0010909104F0A
:100A10007A5C0768D74047600A4F3F6807F4E051A7
:100A2000890A0B4F7A5C4768D7408760054F3F685B
:100A300007F46041490B064F7A5C4768D740C760AE
:100A4000F0BD0000083802400024F40000127A00D3
:100A5000AA040020704700000CB50020019000900F
:100A60003448006840F480303249086000BF3148A3
:100A7000006800F4003000900198401C019000983C
:100A800018B90198B0F5A04FF1D12A48006800F4D8
:100A9000003010B10120009001E00020009000988B
:100AA000012846D123484030006840F08050214959
:100AB000403108602048006840F440401E4908600A
:100AC0001C48083000681B49083108600846006867
:100AD00040F4004008600846006840F4A0500860F8
:100AE0001648091F0860081F006840F08070091F41
:100AF000086000BF0F48006800F000700028F9D0BF
:100B000040F205700E4908600A480830006820F07D
:100B100003000849083108600846006840F00200F8
:100B2000086000BF03480830006800F00C00082887
:100B3000F8D10CBD00380240007000400854400756
:100B4000003C024070B504460D46002605EB8506C4
:100B5000012C06D0022C09D0032C0CD0042C14D16B
:100B60000EE031460A4800F04EFA0FE031460848E0
:100B700000F04BFA0AE03146054800F048FA05E07B
:100B80003146034800F045FA00E000BF00BF70BDE9
:100B900000000140042808D14FF0E021096941F02C
:100BA00004014FF0E022116107E04FF0E0210969F4
:100BB00021F004014FF0E0221161704770470000FE
:100BC00010B51548006840F47000134908601348D8
:100BD000006840F001001149086000200F49083109
:100BE00008600E4800680E4908400C4908600D482E
:100BF000091D0860081F006820F48020091F086094
:100C0000002006490C310860FFF726FF4FF0006016
:100C100001498039086010BD88ED00E000380240CD
:100C2000FFFFF6FE1030002400B58BB0012108460E
:100C3000FFF78CFE01211020FFF778FE0122092129
:100C40003548FFF7B4FB01220B213348FFF7AFFB18
:100C500001220D213048FFF7AAFB01220E212E4868
:100C6000FFF7A5FB4FF4D440099002208DF828002F
:100C700003208DF8290000208DF82A0001208DF82E
:100C80002B0009A92448FFF74AFB5320ADF81800B0
:100C90000020ADF81A0040F2F31007900020ADF8E4
:100CA000200006A91D4800F0B7F96020ADF8040047
:100CB0000120ADF806000220ADF8100001A9174888
:100CC00000F056F801A9154800F09AF801A9134858
:100CD00000F0F6F801A9114800F04CF908210F487E
:100CE00000F084F808210D4800F0DCF808210B48DA
:100CF00000F036F90821094800F078F90121074889
:100D000000F00EF80121054800F016F80121034813
:100D100000F01EF80BB000BD0010024000000140C2
:100D200021B1028842F08002028004E002884FF67E
:100D30007F731A400280704721B1028842F001029D
:100D4000028004E002884FF6FE731A40028070476A
:100D500031B1B0F8442042F40042A0F8442005E04C
:100D6000B0F84420C2F30E02A0F8442070470000FF
:100D700070B5002400220023058C4FF6FE76354026
:100D80000584028C8388048B4FF68F752C40B51E2A
:100D90002C400D882C43751E2A408D892A434D888E
:100DA0002A43104DA84202D00F4DA84213D14FF64E
:100DB000F7752A40CD892A434FF6FB752A408D8866
:100DC0002A434FF6FF652B404FF6FF552B400D8A07
:100DD0002B434D8A2B43838004838D6845630284B3
:100DE00070BD000000000140000401400A460021DF
:100DF000018B4FF6F77319401143018370470000D0
:100E000070B5002400220023058C4FF6EF763540A4
:100E10000584028C8388048B48F6FF752C404FF6BE
:100E2000FF452C400D884FF6FF7606EA05252C433A
:100E30004FF6DF752A408D8906EA05152A434D884D
:100E400006EA05152A43154DA84202D0144DA842C2
:100E50001DD14FF67F752A40CD894FF6FF7606EA01
:100E600005152A434FF6BF752A408D8806EA0515F9
:100E70002A434FF6FF352B404FF2FF752B400D8A6A
:100E800006EA85052B434D8A06EA85052B438380B8
:100E900004838D688563028470BD000000000140FA
:100EA000000401400A460021018B4FF2FF731940F4
:100EB0004FF6FF7303EA02231943018370470000D2
:100EC00070B5002400220023058C4FF6FF663540E4
:100ED0000584028C8388848B4FF68F752C404FF6E7
:100EE000FC752C400D882C434FF6FF552A408D8908
:100EF0004FF6FF7606EA05252A434D8806EA0525C2
:100F00002A43154DA84202D0144DA8421DD14FF2DC
:100F1000FF752A40CD894FF6FF7606EA05252A435C
:100F20004FF6FF352A408D8806EA05252A434EF6FE
:100F3000FF752B404DF6FF752B400D8A06EA05150F
:100F40002B434D8A06EA05152B43838084838D68E5
:100F5000C563028470BD0000000001400004014030
:100F60000A460021818B4FF6F773194011438183A4
:100F70007047000070B5002200230024058C4EF657
:100F8000FF7635400584038C8488828B48F6FF7594
:100F90002A404FF6FF452A400D884FF6FF7606EAB5
:100FA00005252A434DF6FF752B408D8906EA053548
:100FB0002B434D8806EA05352B430A4DA84202D043
:100FC000094DA84208D14BF6FF752C400D8A4FF60B
:100FD000FF7606EA85152C43848082838D6805643C
:100FE000038470BD00000140000401400A46002156
:100FF000818B4FF2FF7319404FF6FF7303EA022310
:101000001943818370474163704781637047C163AF
:10101000704701647047000000220288184B984214
:101020000ED0184B98420BD0B0F1804F08D0164B21
:10103000984205D0154B984202D0154B984204D1E6
:101040004FF68F731A404B881A43124B984207D0C1
:10105000114B984204D04FF6FF431A400B891A43B4
:1010600002804B68C3620B880385054B984202D00F
:10107000044B984201D18B7A038601238382704707
:10108000000001400004014000040040000800404E
:10109000000C0040001000400014004010B540F269
:1010A00025511D4800F04AF810B31B4800F000F924
:1010B000C4B21A48008800F40040C8B91748008834
:1010C00000F4804060B10A2C03D00020134908804E
:1010D00020E01248008840F400401049088019E0E0
:1010E0000D2C06D10D48008840F480400B49088043
:1010F00010E00A480088C0F30D0009490C54074865
:101100000088401C0549088008460088C72801DD82
:101110000020088010BD000000100140A80400203D
:10112000BC04002021B1828942F40052828104E093
:1011300082894DF6FF731A408281704770B502466E
:10114000002400230025002040F66A16B14200D199
:1011500000BFC1F3421501F01F03012606FA03F395
:10116000012D02D19689334006E0022D02D1168A64
:10117000334001E0968A33400C12012606FA04F44B
:101180001688344013B10CB1012000E0002070BD7E
:10119000F0B50346002400260025002040F66A171B
:1011A000B94200D100BF1846C1F3421401F01F0636
:1011B000012707FA06F5012C01D10C3004E0022CBE
:1011C00001D1103000E014301AB107682F430760D6
:1011D00002E00768AF430760F0BD00002DE9FF475C
:1011E00005460E460024A14600BFA046B08900B1C6
:1011F00000BF2C8A24F44054F08804432C82AC892C
:1012000041F20C608443B0883189084371890843F6
:101210000443AC81AC8A24F44074B0890443AC82AA
:101220006846FFF7A3FB2048854202D01F4885424D
:1012300002D1DDF80C9001E0DDF80890A88900F4F7
:10124000004040B109EBC90000EB091031684900CA
:10125000B0FBF1F707E009EBC90000EB09103168BA
:101260008900B0FBF1F76420B7FBF0F0040120091E
:10127000642101FB1078A88900F4004040B13220BD
:1012800000EBC800B0FBF1F000F00700044308E0F9
:10129000322000EB08106421B0FBF1F000F00F00E9
:1012A00004432C81BDE8FF87001001400014014079
:1012B00001468888C0F30800704700BFFEE70000C1
:1012C00070B5044600251748006820F040601549B5
:1012D000086008460068086000BF134800680028DE
:1012E000FBD01048006820F040600E4908600846B6
:1012F000006840F080600860FFF7D8F8F020FFF742
:10130000A1F8FFF71FF905460020FFF79BF8FFF74C
:1013100019F92046FFF796F8FFF714F9FFF7ECF8F4
:1013200070BD0000000C02403482414210B50446FA
:101330001A48006820F040601849086008460068B4
:10134000086000BF164800680028FBD013480068FA
:1013500020F04060114908600846006840F0806055
:101360000860FFF7A3F8F020FFF76CF8FFF7EAF842
:101370004020FFF767F8FFF7E5F82046FFF762F82F
:10138000FFF7E0F8FFF7B8F80448006820F0406085
:101390000249086008460068086010BD000C024061
:1013A0003482414200BF704710B504466FF004001C
:1013B000FFF7F0FBE11704EB5171C1F3C701074AD6
:1013C00011701046007800EB4001C1EBC0104FF6E1
:1013D000FF7101EAC0000249088010BDA00400208E
:1013E000A204002070B504464FF4077094FBF0F09F
:1013F000C6B24FF4077094FBF0F100FB114085B2C8
:1014000005E04FF4077000F02FF8701EC6B2002EF2
:10141000F7D115B1284600F027F870BD0146114AF2
:1014200012784A434FF0E0235A6100229A611A462B
:10143000126942F001021A6100BF4FF0E022106908
:1014400000F001021AB100F48032002AF5D04FF00A
:10145000E022126922F001024FF0E0231A6100221B
:101460009A617047A00400200146114A12884A433D
:101470004FF0E0235A6100229A611A46126942F045
:1014800001021A6100BF4FF0E022106900F0010272
:101490001AB100F48032002AF5D04FF0E022126930
:1014A00022F001024FF0E0231A6100229A61704796
:1014B000A204002008B500BF00244FF4E13000F082
:1014C0005FF85420FFF770FFFFF7AEFB64210120A7
:1014D000FFF738FBFFF702F93EE0FF20FFF7E1F8E6
:1014E000C820FFF77FFF0020FFF7DBF8C820FFF7D9
:1014F00079FF002408E0E2B2162101EB0411C8B222
:101500000021FFF771F9641C052CF4D3C820FFF704
:1015100069FF012311A203210020FFF78FF90223A5
:1015200013A204210020FFF789F9C820FFF75AFF12
:10153000FFF778F8FFF72DF9C820FFF753FFFFF703
:1015400033F90E4808238022002100900846FFF757
:101550006EF8C820FFF746FFBFE7000048656C54EF
:101560006563204175746F6D6174696F6E00000072
:1015700048656C6C6F20546563680000A000002013
:1015800010B588B0044601210846FFF7CFF90121C4
:101590001020FFF7DBF9072209212248FEF707FF99
:1015A00007220A211F48FEF702FF4FF4C060069091
:1015B00002208DF81C008DF81D0000208DF81E0003
:1015C00001208DF81F0006A91648FEF7A8FE029418
:1015D0000020ADF80C00ADF80E00ADF81000ADF82D
:1015E00014000C20ADF8120002A90F48FFF7F6FD19
:1015F00001210D48FFF796FD012240F225510A48CE
:10160000FFF7C6FD25208DF8040003208DF80500A6
:101610008DF8060001208DF8070001A8FEF7C6FF2F
:1016200008B010BD00000240001001404FF04070B3
:10163000E1EE100A70470000000000000000002FDB
:10164000000000000700070000147F147F1400242E
:101650002A7F2A120062640813230036495522505B
:1016600000000503000000001C2241000000412290
:101670001C000014083E08140008083E080800007A
:1016800000A0600000080808080800006060000072
:10169000002010080402003E5149453E0000427FF0
:1016A0004000004261514946002141454B3100183C
:1016B00014127F10002745454539003C4A494930FE
:1016C00000017109050300364949493600064949B8
:1016D000291E0000363600000000563600000008C3
:1016E00014224100001414141414000041221408A0
:1016F00000020151090600324959513E007C121185
:10170000127C007F49494936003E41414122007F19
:101710004141221C007F49494941007F09090901D3
:10172000003E4149497A007F0808087F0000417F58
:101730004100002040413F01007F08142241007F0A
:1017400040404040007F020C027F007F0408107F71
:10175000003E4141413E007F09090906003E4151DA
:10176000215E007F09192946004649494931000197
:10177000017F0101003F4040403F001F2040201FEB
:10178000003F4038403F00631408146300070870AE
:10179000080700615149454300007F414100005561
:1017A0002A552A55000041417F000004020102042D
:1017B000004040404040000001020400002054541A
:1017C0005478007F4844443800384444442000386A
:1017D0004444487F00385454541800087E090102DC
:1017E0000018A4A4A47C007F080404780000447DB1
:1017F0004000004080847D00007F102844000000ED
:10180000417F4000007C04180478007C08040478C0
:1018100000384444443800FC2424241800182424AC
:1018200018FC007C080404080048545454200004A8
:101830003F444020003C4040207C001C2040201CB5
:10184000003C4030403C004428102844001CA0A02C
:10185000A07C004464544C44141414141414000068
:101860000000000000000000000000000000000078
:1018700000F80000000000000033300000000010FD
:101880000C06100C0600000000000000000040C024
:101890007840C0784000043F04043F040400007016
:1018A00088FC08300000001820FF211E0000F0080E
:1018B000F000E018000000211C031E211E0000F0B3
:1018C0000888700000001E212324192721101016FB
:1018D0000E000000000000000000000000000000FA
:1018E00000E0180402000000000718204000000279
:1018F0000418E000000000402018070000004040ED
:1019000080F0804040000202010F0102020000004E
:1019100000F0000000000101011F010101000000B2
:1019200000000000000080B0700000000000000017
:1019300000000000000000010101010101010000A0
:101940000000000000000030300000000000000037
:10195000000080601804006018060100000000E02C
:1019600010080810E000000F102020100F000010D9
:1019700010F8000000000020203F20200000007030
:101980000808088870000030282422213000003028
:101990000888884830000018202020110E00000020
:1019A000C02010F8000000070424243F240000F8A1
:1019B0000888880808000019212020110E0000E086
:1019C000108888180000000F112020110E00003828
:1019D0000808C83808000000003F00000000007040
:1019E000880808887000001C222121221C0000E0C9
:1019F00010080810E0000000312222110F00000042
:101A000000C0C000000000000030300000000000F6
:101A10000080000000000000806000000000000066
:101A200080402010080000010204081020004040FF
:101A30004040404040000404040404040400000842
:101A400010204080000000201008040201000070F7
:101A500048080808F0000000003036010000C030DF
:101A6000C828E810E0000718272423140B00000002
:101A7000C038E0000000203C23020227382008F88C
:101A8000888888700000203F202020110E00C03080
:101A9000080808083800071820202010080008F857
:101AA00008080810E000203F202020100F0008F850
:101AB0008888E8081000203F20202320180008F81C
:101AC0008888E8081000203F200003000000C03094
:101AD00008080838000007182020221E020008F815
:101AE00008000008F808203F210101213F200008DC
:101AF00008F8080800000020203F20200000000017
:101B00000808F8080800C08080807F00000008F8FE
:101B100088C028180800203F20012638200008F837
:101B2000080000000000203F20202020300008F89E
:101B3000F800F8F80800203F003F003F200008F8B8
:101B400030C00008F808203F200007183F00E010D0
:101B500008080810E0000F10202020100F0008F8DF
:101B600008080808F000203F210101010000E010F2
:101B700008080810E0000F18242438504F0008F817
:101B8000888888887000203F2000030C3020007077
:101B90008808080838000038202121221C00180875
:101BA00008F8080818000000203F2000000008F88E
:101BB00008000008F808001F202020201F000878D7
:101BC000880000C83808000007380E010000F80837
:101BD00000F80008F800033C0700073C0300081861
:101BE00068808068180820302C03032C30200838C7
:101BF000C800C83808000000203F2000000010087E
:101C00000808C838080020382621202018000000C5
:101C100000FE020202000000007F40404000000C75
:101C200030C000000000000000010638C0000002C3
:101C30000202FE000000004040407F000000000063
:101C40000402020204000000000000000000000086
:101C50000000000000008080808080808080000282
:101C6000020400000000000000000000000000006E
:101C70008080808000000019242222223F2008F862
:101C8000008080000000003F112020110E000000A5
:101C9000008080800000000E112020201100000034
:101CA00000808088F800000E112020103F200000E6
:101CB000808080800000001F2222222213000080EA
:101CC00080F0888888180020203F20200000000035
:101CD000808080808000006B94949493600008F86A
:101CE000008080800000203F210000203F200080F5
:101CF0009898000000000020203F202000000000F5
:101D000000809898000000C08080807F000008F864
:101D1000000080808000203F24022D302000000839
:101D200008F8000000000020203F202000008080F4
:101D3000808080808000203F20003F20003F808006
:101D4000008080800000203F210000203F20000014
:101D5000808080800000001F202020201F008080C5
:101D600000808000000080FFA12020110E000000F4
:101D7000008080808000000E112020A0FF808080E5
:101D800080008080800020203F2120000100000092
:101D90008080808080000033242424241900008067
:101DA00080E0808000000000001F20200000808074
:101DB000000000808000001F202020103F20808035
:101DC00080000080808000010E30080601008080C5
:101DD0000080008080800F300C030C300F000080EA
:101DE0008000808080000020312E0E312000808015
:101DF00080000080808080818E7018060100008045
:101E00008080808080000021302C22213000000062
:101E10000000807C020200000000003F4040000003
:101E20000000FF00000000000000FF0000000002B2
:101E3000027C800000000040403F000000000006DF
:101E40000101020204040000000000000000000084
:101E5000701E000800000020BC040000C40100083F
:101E600028200008BC0400202C07000020020008E5
:101E700011200F0202FAFAAAAAFFFFAAAAFAFA028E
:101E800002100F4272723A7A424B5B5262621377CF
:101E9000661016203C1CFFFFB0B424243F3FE4E44E
:101EA000242420020203FFFF300B01051D59C1FF4E
:101EB0007F010101500CF8F8484C4F4B4A4848F854
:101EC000F84CFFFF44011929112C20242438100953
:101ED000243010FFFF10F0F01010081C1F0B0C0D29
:101EE0004F6E341C0F23607F3F180880C060F8FFDE
:101EF00007023546E0703C1C08200D7F7F04060376
:101F00003F7F4040407878100A03050911FF11898E
:101F100005C312E012F0496221073D4428FF11AACF
:101F200044700B830138448292927401831E7C4476
:101F3000C7017D01990519C1419A01028139FB014F
:101F40003C69419949FA0101A12A4001212A6D0108
:101F5000212A6001791501642ADB010915072ADAB3
:101F600001212AD801212AC0010915072A8001016F
:101F7000352A06010918071CE66620076A86157AC5
:101F8000861C2A8601180A80808686068686C0C03E
:101F90000C0E1C0606D030764D2907013113601C4B
:101FA00012FE1301021009C41820029E63B20E1D16
:101FB000FF8181FFF24440300F12FF180923EAAA83
:101FC000BFAAEA033F0B012DBC80808008011524C5
:101FD0000E0C082A01013149041D818080810219FB
:101FE00001B91706110101090C0E0A14C00121786C
:101FF000081E21404050215E08012A4DFFFFC1C14B
:102000000409232DE81580FCF3EFF3FC80FF80EE3C
:10201000EEEEF5FBFF9CBEB6B6883A2D0102030436
:08202000042506070809000071
:040000050800018965
:00000001FF
