:020000040800F2
:10000000B8070020290200082B0A00080504000890
:10001000270A0008D9020008C723000800000000D2
:10002000000000000000000000000000350E000885
:100030002D030008000000006F0B00082B100008C3
:10004000430200084302000843020008430200087C
:10005000430200084302000843020008430200086C
:10006000430200084302000843020008430200085C
:10007000430200084302000843020008430200084C
:10008000430200084302000843020008430200083C
:10009000430200084302000843020008430200082C
:1000A000430200084302000843020008430200081C
:1000B000D11200080117000843020008430200089B
:1000C00043020008430200084302000843020008FC
:1000D000430200088D210008430200084302000883
:1000E00043020008430200084302000843020008DC
:1000F00043020008430200084302000843020008CC
:1001000043020008430200084302000843020008BB
:1001100043020008430200084302000843020008AB
:10012000430200084302000843020008430200089B
:10013000430200084302000843020008430200088B
:10014000430200084302000843020008430200087B
:10015000430200084302000843020008430200086B
:10016000430200084302000843020008430200085B
:10017000430200084302000843020008430200084B
:10018000430200084302000800F002F800F03CF8C7
:100190000AA090E8000C82448344AAF10107DA45E2
:1001A00001D100F031F8AFF2090EBAE80F0013F0F8
:1001B000010F18BFFB1A43F0010318477824000011
:1001C00098240000103A24BF78C878C1FAD85207A2
:1001D00024BF30C830C144BF04680C6070470000C1
:1001E0000023002400250026103A28BF78C1FBD840
:1001F000520728BF30C148BF0B6070471FB502F0DF
:1002000013FA1FBD10B510BD00F038F81146FFF706
:10021000F5FF02F099F900F056F803B4FFF7F2FF8A
:1002200003BC02F009F9000009488047094800476B
:10023000FEE7FEE7FEE7FEE7FEE7FEE7FEE7FEE796
:10024000FEE7FEE704480549054A064B70470000F3
:100250002D10000889010008B8010020B80700200F
:10026000B8030020B80300207047704770477047FC
:100270007047000000487047540100207546FFF7A2
:10028000F9FFAE4605006946534620F00700854653
:1002900018B020B5FFF7D6FFBDE820404FF00006AC
:1002A0004FF000074FF000084FF0000B21F007015E
:1002B000AC46ACE8C009ACE8C009ACE8C009ACE8A1
:1002C000C0098D46704710B50446AFF30080204644
:1002D000BDE81040FFF7A1BF00BFFEE7F8B500F092
:1002E00077FC012000F046FD00BF00F087FD0128EB
:1002F000FBD108244FF4A8750226072733462A4667
:1003000021468005009700F05BFD012000F052FDC2
:10031000022000F067FD002000F020FD4FF4A05007
:1003200000F030FD600200F039FDF8BD7047F0B517
:100330000A4600210023002400BF3DE0012505FA04
:1003400001F3156805EA03049C4234D105684F00A7
:100350000326BE40B543056015794E00B5400668DA
:10036000354305601579012D02D01579022D16D17E
:1003700085684F000326BE40B543856055794E0021
:10038000B540866835438560456801268E40B54393
:100390004560456896798E40B6B235434560C5687C
:1003A0004F000326BE40B543C560D5794E00B54029
:1003B000C6683543C560491C1029BFD3F0BDF0B5F0
:1003C000002300244D07ED0E02FA05F3CE1000F1D4
:1003D000200555F826504E07F70E0F26BE40B543B0
:1003E000CF1000F1200646F82750CE1000F120056E
:1003F00055F8265045EA0304CE1000F1200545F8D3
:100400002640F0BD00BFFEE71CB50121082000F02A
:10041000AFFB4FF44050009001208DF80400002005
:100420008DF8060003208DF8050001208DF80700E7
:1004300069460548FFF77BFF01200449086004492D
:10044000C1F8B0021CBD0000000C0240B482414261
:100450000080414270B504461548006820F04070A5
:10046000134908600846006840F08070086000206A
:1004700010490860002517E0E0090E49091F0860CF
:100480006006040E022002F013F801200A49C1F8A8
:10049000B402022002F00CF8002006490860022095
:1004A00002F006F8681CC5B2082DE5DB70BD00003F
:1004B000000C0240B48241420080414210B50F4816
:1004C000006820F040700D4908600846006840F060
:1004D0008070086001200A4908600A49C1F8B40226
:1004E000042001F0E5FF002005490860042001F028
:1004F000DFFF00200349C1F8B40210BD000C024028
:10050000B08241420080414210B50F48006820F09F
:1005100040700D4908600846006840F0807008602F
:1005200000200A4908600A49C1F8B002042001F01D
:10053000BFFF0120054908600549C1F8B002042049
:1005400001F0B6FF10BD0000000C0240B482414231
:100550000080414210B500241348006820F040702C
:100560001149086008460068086001200F490860CA
:1005700001F09EFF01200E49C1F8B40201F098FF7E
:1005800007E0601CC4B2FA2C03DDFFF7BDFF0120B9
:1005900010BD0648803800680028F2D10349091DC3
:1005A000086000BFF4E70000000C0240B082414246
:1005B0000080414210B500200F4908600F480068D4
:1005C00020F040500D4908600846006840F0805017
:1005D000086000200A49C1F8B802022001F068FF53
:1005E000012005490860022001F062FF0020044953
:1005F000C1F8BC0210BD0000BC824142000C0240A8
:10060000008041421CB50121082000F0B1FA4FF4EE
:100610004040009001208DF8040000208DF8060075
:1006200003208DF8050001208DF807006946054874
:10063000FFF77DFE0120044908600449C1F8B802B3
:100640001CBD0000000C0240BC82414200804142BF
:1006500010B500200F4908600F48006820F0405096
:100660000D4908600846006840F08050086001208D
:100670000A49C1F8B802022001F01AFF0120054919
:100680000860022001F014FF00200449C1F8BC02F8
:1006900010BD0000BC824142000C0240008041427B
:1006A00070B5054600241648006820F040501449F3
:1006B0000860084600680860002616E0002011491E
:1006C0000860022001F0F4FE01200F49C1F8BC02CD
:1006D0006006040E0B488C38006808B1601CC4B278
:1006E000012001F0E5FE701CC6B2082EE6DB15B94C
:1006F000FFF7AEFF01E0FFF75DFF204670BD000091
:10070000000C0240BC8241420080414270B5044668
:100710001548006820F040501349086008460068FA
:1007200040F080500860002010490860002517E064
:10073000E0090E49091F08606006040E022001F05E
:10074000B7FE01200A49C1F8BC02022001F0B0FE48
:10075000002006490860022001F0AAFE681CC5B20C
:10076000082DE5DB70BD0000000C0240BC82414258
:100770000080414210B50F48006820F040500D49FC
:1007800008600846006840F08050086001200A496F
:1007900008600A49C1F8BC02042001F089FE00206B
:1007A00005490860042001F083FE00200349C1F8D8
:1007B000BC0210BD000C0240B882414200804142A0
:1007C00010B50F48006820F040500D4908600846F9
:1007D000006840F08050086000200A4908600A491B
:1007E000C1F8B802042001F063FE01200549086049
:1007F0000549C1F8B802042001F05AFE10BD0000FE
:10080000000C0240BC8241420080414210B50024ED
:100810001348006820F040501149086008460068FD
:10082000086001200F49086001F042FE01200E49D6
:10083000C1F8BC0201F03CFE07E0601CC4B2FA2C17
:1008400003DDFFF7BDFF012010BD064888380068B2
:100850000028F2D10349091D086000BFF4E7000039
:10086000000C0240B88241420080414210B54FF472
:10087000A06000F017F9FFF731FDA82001F0DEFDC0
:100880004FF4E13001F07AFE00F096FC00F09CFE9F
:1008900000F012F900F001F810BD10B5FFF7B2FE3C
:1008A00080216B2000F09DF8642001F0E5FD00211F
:1008B0006B2000F096F8032000F051F8002000F0C3
:1008C00046F8322000F070F80021382000F089F856
:1008D00000216A2000F085F80021232000F081F833
:1008E0008021372000F07DF8752000F013F80446D1
:1008F000682C0BD101216B2000F073F800216C20D3
:1009000000F06FF8322000F04FF801E0012010BD38
:100910000020FCE770B50446FFF72CFFD020FFF75E
:10092000F5FEFFF773FF2046FFF7F0FEFFF76EFFBF
:10093000FFF720FFD120FFF7E9FEFFF767FF002058
:10094000FFF7AEFE0546FFF73BFF284670BD10B52A
:100950000446E006010E1C2000F043F810BD10B55F
:100960000446E006010E1B2000F03BF810BD70B5F8
:1009700004460025BC2C01DB012510E0622C01DBC4
:1009800002250CE02A2C01DB032508E0142C01DBF6
:10099000042504E00A2C01DB052500E00625294694
:1009A0001A2000F01EF870BD70B50446B4F57A7FC9
:1009B00001DD4FF47A74042C00DA04244FF47A70C9
:1009C00090FBF4F0401EC5B22946192000F009F84A
:1009D0000546264604EBD671C1F34F00FFF7C7FF6B
:1009E00070BD70B505460C46FFF7C4FED020FFF77A
:1009F0008DFEFFF70BFF18B1FFF7E2FE012070BD7F
:100A00002846FFF783FEFFF701FF2046FFF77EFE33
:100A1000FFF7FCFE18B1FFF7D3FE0120EFE7FFF769
:100A2000CFFE0020EBE700BFFEE7704770B5002166
:100A300000230F22C4781CB3174C246804F4E0642C
:100A4000C4F5E064C4F30721C1F10404E3B20A4130
:100A500044789C40E1B28478144021430C07210E75
:100A60000E4C05786155047804F01F050124AC4054
:100A700005786D11AD0005F1E025C5F8004109E0EC
:100A8000047804F01F050124AC40054D067876116A
:100A900045F8264070BD00000CED00E000E400E0E9
:100AA00080E100E002490143024A11607047000002
:100AB0000000FA050CED00E010B5FFF7A5FC64207E
:100AC00001F0DAFCAE2001F081FC202001F07EFC78
:100AD000102001F07BFCB02001F078FCC82001F070
:100AE00075FC002001F072FC102001F06FFC40202A
:100AF00001F06CFC812001F069FCFF2001F066FC34
:100B0000A12001F063FCA62001F060FCA82001F008
:100B10005DFC3F2001F05AFCA42001F057FCD320DB
:100B200001F054FC002001F051FCD52001F04EFCF6
:100B3000F02001F04BFCD92001F048FC222001F00C
:100B400045FCDA2001F042FC122001F03FFCDB20E2
:100B500001F03CFC202001F039FC8D2001F036FC36
:100B6000142001F033FCAF2001F030FC10BD7047C1
:100B700029B1064A12680243044B1A6004E0034A92
:100B800012688243014B1A607047000030380240FF
:100B900029B1064A12680243044B1A6004E0034A72
:100BA00012688243014B1A607047000040380240CF
:100BB00029B1064A12680243044B1A6004E0034A52
:100BC00012688243014B1A607047000044380240AB
:100BD0001448006840F001001249086000201149E3
:100BE000083108600F4800680F4908400D49086047
:100BF0000E48091D08600E480A49843108600B48F8
:100C00001038091D08600748006820F48020054955
:100C10000860002003490C31086002498C310860EB
:100C20007047000000380240FFFFF6EA1030002451
:100C300000300020F0B5002100220024022500260B
:100C40000223324F3F6807F00C0121B1042905D07F
:100C5000082937D105E02E4F076036E02D4F076099
:100C600033E02A4F3F1F3F68C7F38056274F3F1F8F
:100C70003F6807F03F036EB1264FB7FBF3F7DFF88D
:100C80008CC0ACF1040CDCF800C0CCF3881C07FB72
:100C90000CF40CE01E4FB7FBF3F7DFF870C0ACF1BB
:100CA000040CDCF800C0CCF3881C07FB0CF4174FD5
:100CB0003F1F3F68C7F301477F1C7D00B4FBF5F77A
:100CC000076002E0124F076000BF00BF0F4F3F6890
:100CD00007F0F0010909104F7A5C0768D7404760B8
:100CE0000A4F3F6807F4E051890A0B4F7A5C476866
:100CF000D7408760054F3F6807F46041490B064FB6
:100D00007A5C4768D740C760F0BD000008380240F1
:100D10000024F40000127A007C00002010B5014687
:100D20000022002300204A11012A02D10A4C236824
:100D300008E0022A03D1084C7034236802E0064C14
:100D40007434236801F01F02012494401C400CB14C
:100D5000012000E0002010BD0038024001460020C4
:100D6000034A106820F0F00008431060704700004C
:100D7000083802400021024A11701146087070477D
:100D80000238024001460020034A106820F4E05077
:100D900008431060704700000838024001460020F8
:100DA000034A106820F4604040EAC10010607047B8
:100DB00008380240014908667047000000004742B9
:100DC00070B5049C41EA82150126C6EB530645EA3C
:100DD0000645054345EA0465014E356070BD0000D7
:100DE0000438024001460020034A106820F0030046
:100DF00008431060704700000838024038B50020F2
:100E000000900024002500BF3120FFF787FF054632
:100E10000098401C00900098B0F5A04F01D0002D24
:100E2000F2D03120FFF77AFF08B1012400E000245E
:100E3000204638BD704700000CB50020019000909E
:100E40003448006840F480303249086000BF3148BF
:100E5000006800F4003000900198401C0190009858
:100E600018B90198B0F5A04FF1D12A48006800F4F4
:100E7000003010B10120009001E0002000900098A7
:100E8000012846D123484030006840F08050214975
:100E9000403108602048006840F440401E49086026
:100EA0001C48083000681B49083108600846006883
:100EB00040F4004008600846006840F4A050086014
:100EC0001648091F0860081F006840F08070091F5D
:100ED000086000BF0F48006800F000700028F9D0DB
:100EE00040F205700E4908600A480830006820F09A
:100EF00003000849083108600846006840F0020015
:100F0000086000BF03480830006800F00C000828A3
:100F1000F8D10CBD00380240007000400854400772
:100F2000003C024010B504462146012000F016F8AE
:100F300010BD10B504462146022000F00FF810BD88
:100F400010B504462146032000F008F810BD10B586
:100F500004462146042000F001F810BD70B5044697
:100F60000D4600BF322005FB00F6012C06D0022CF6
:100F700009D0032C0CD0042C14D10EE031460B48C0
:100F800001F08CF80FE03146084801F089F80AE0DA
:100F90003146064801F086F805E03146034801F085
:100FA00083F800E000BF00BF70BD000000000140FA
:100FB00010B50A24302415E02046FFF7B3FF0A20BD
:100FC00001F05AFA2046FFF7B4FF0A2001F054FA64
:100FD0002046FFF7B5FF0A2001F04EFA2046FFF742
:100FE000B6FF641E142CE7D81420FFF79BFF1420D3
:100FF000FFF79FFF1420FFF7A3FF1420FFF7A7FFC1
:1010000010BD042808D14FF0E021096941F0040126
:101010004FF0E022116107E04FF0E021096921F073
:1010200004014FF0E02211617047704710B5154878
:10103000006840F47000134908601348006840F0ED
:1010400001001149086000200F49083108600E486E
:1010500000680E4908400C4908600D48091D0860E9
:10106000081F006820F48020091F0860002006493E
:101070000C310860FFF7E0FE4FF000600149803955
:10108000086010BD88ED00E000380240FFFFF6FE6A
:1010900010300024F0B50C46154600210022068CC5
:1010A0004FF6FE773E400684018B028C4FF60C769D
:1010B00031407E1C06EA03162E4331434FF6F57687
:1010C000324044F00106324301830284F0BDF0B5A2
:1010D0000C461546002100220026078C4FF6EF7CB7
:1010E00007EA0C070784018B028C4FF6FF7707EAAB
:1010F000041640F6FF4739404FF6FF7707EA0337FB
:1011000039434FF6FF7707EA052739434FF65F77F4
:101110003A4046F010073A4301830284F0BDF0B52F
:101120000C461546002100220026078C4FF6FF6C66
:1011300007EA0C070784818B028C4FF6FF7707EADA
:1011400004264FF60C7739404FF6FF7707EA03176E
:101150002F4339434FF2FF573A4046F480773A43E2
:1011600081830284F0BDF0B50C46154600210022B3
:101170000026078C4EF6FF7C07EA0C070784818B5C
:10118000028C4FF6FF7707EA043640F6FF473940F6
:101190004FF6FF7707EA052739434FF6FF7707EA4F
:1011A0000337394345F6FF773A4046F480573A43D0
:1011B00081830284F0BD000000B58BB00121084698
:1011C000FFF7F6FC01211020FFF7D2FC01220921D4
:1011D0003D48FFF7F4F801220B213B48FFF7EFF8F9
:1011E00001220D213848FFF7EAF801220E21364886
:1011F000FFF7E5F84FF4D440099002208DF828005D
:1012000003208DF8290000208DF82A0001208DF898
:101210002B0009A92C48FFF78AF8A720ADF8180081
:101220000020ADF81A0041F2873007900020ADF899
:10123000200006A9254800F067FF6020ADF80400F3
:101240000120ADF806000020ADF8100001A91F48EC
:1012500000F0ACFD01A91D4800F0F8FD01A91B48F4
:1012600000F060FE01A9194800F0C2FE08211748ED
:1012700000F0E3FD0821154800F047FE082113485F
:1012800000F0ADFE0821114800F0FBFE01210F48DF
:1012900000F004FD01210D4800F00FFD01210B4875
:1012A00000F017FD0021094800F0F8FE0021074872
:1012B00000F0F6FE0021054800F0F4FE002103488E
:1012C00000F0F2FE0BB000BD001002400000014033
:1012D00010B5B448007800F0800000284ED10121FC
:1012E000880700F011FDD0B1AE48007800F0400052
:1012F000A8B1AC48007800F03F003F280AD1A948C7
:10130000007840F08000A74908704FF6FF70A649AA
:10131000086004E0A3480078401CA249087002213C
:10132000480700F0F1FC48B39E48007800F0400008
:1013300088B19C48007840F080009A4908704FF0CE
:10134000804000F0D5FC9849086000214FF08040B3
:1013500000F06AFD12E0002092490870924908608E
:101360000021924800F0A2FE8E48007840F0400034
:101370008C4908700221480700F056FD03214FF008
:10138000804000F097FC8A48007800F08000002838
:101390004FD10121880700F0B7FCD0B18448007814
:1013A00000F04000A8B18248007800F03F003F28DC
:1013B0000AD17F48007840F080007D4908704FF6E0
:1013C000FF707C49086004E079480078401C784947
:1013D00008700421080700F097FC50B374480078A7
:1013E00000F0400088B17248007840F080007049F9
:1013F00008704FF0804000F07EFC6E4908600021CC
:101400004FF0804000F074FD13E000206849087040
:101410006849086000214FF0804000F047FE6448B2
:10142000007840F04000624908700221480700F04F
:101430005FFD0521880700F03DFC5F48007800F063
:10144000800000284FD10121880700F05DFCD0B159
:101450005948007800F04000A8B15748007800F0E3
:101460003F003F280AD15448007840F0800052499C
:1014700008704FF6FF705149086004E04E4800784C
:10148000401C4D4908700821C80600F03DFC50B3CF
:101490004948007800F0400088B14748007840F0A3
:1014A0008000454908704FF0804000F027FC434918
:1014B000086000214FF0804000F084FD13E0002020
:1014C0003D4908703D49086000214FF0804000F020
:1014D000EDFD3948007840F040003749087002219E
:1014E000480700F06FFD0921880700F0E3FB34484E
:1014F000007800F08000D0BB0121880700F004FCD8
:10150000D0B12F48007800F04000A8B12C480078F6
:1015100000F03F003F280AD12948007840F08000C1
:10152000274908704FF6FF702649086004E02448F8
:101530000078401C224908701021880600F0E4FB66
:10154000A8B11F48007800F0400088B11C4800781E
:1015500040F080001A4908704FF0804000F0D1FB45
:101560001849086000214FF0804000F07DFD13E035
:101570000020134908701349086000214FF0804093
:1015800000F094FD0E48007840F040000C490870CF
:101590000221480700F068FD1121880700F08AFB4E
:1015A00010BD00005C00002060000020000400402E
:1015B00064000020680000206C0000207000002003
:1015C000740000207800002000B589B001210220BD
:1015D000FFF7DEFA01210846FFF7CAFA01210220CF
:1015E000FFF7C6FA4020079002208DF82000032064
:1015F0008DF8210000208DF8220002208DF82300B4
:1016000007A93C48FEF793FE8020079007A93948B8
:10161000FEF78DFE0120079007A93748FEF787FEE9
:101620000220079007A93448FEF781FE0222062116
:101630003048FEF7C4FE022207212E48FEF7BFFE07
:10164000022200212C48FEF7BAFE022201212A487C
:10165000FEF7B5FE5320ADF810000020ADF81200E3
:101660004FF6FF7005900020ADF8180004A923483C
:1016700000F04AFD0020ADF80000ADF802000120A6
:10168000ADF804000020ADF80600ADF8080069468A
:101690001A4800F04AFB0420ADF8000069461748DC
:1016A00000F043FB0820ADF800006946134800F045
:1016B0003CFB0C20ADF800006946104800F035FBFB
:1016C00001221F210D4800F067FB01210B4800F0AB
:1016D000F4FA1D208DF80C0002208DF80D0000207A
:1016E0008DF80E0001208DF80F0003A8FFF79EF97A
:1016F00009B000BD000002400004024000040040A8
:1017000010B5FE48007800F0800000284BD1012180
:10171000FB4800F0F9FAA8B1F848007800F03F0063
:101720003F280AD1F548007840F08000F34908705E
:101730004FF6FF70F349086004E0F0480078401C61
:10174000EE4908700221EE4800F0DEFA00287BD056
:10175000EA48007800F04000402825D1EA480068B7
:1017600010BBE74800F0C4FAE6490860E348007897
:1017700000F03F00C0EB004009680844E2490860FF
:101780000020DE490870DF490860DC48007840F03E
:101790004000DA4908700021D94800F087FC002198
:1017A000D74800F041FB4FE0D448007800F04000FB
:1017B000402836D1D448006890B3D14800F098FA58
:1017C000D0490860CD48007800F03F00C0EB0040F1
:1017D00009680844CD490860CB4890ED000AF8EE4E
:1017E000400A084690ED000AB8EE400A70EE800A02
:1017F000C54890ED000AB8EE400A80EE201AC448B1
:1018000080ED001A0020C0490860BC490870BD493D
:101810000860BA48007840F08000B849087013E0CA
:10182000FFE70020B5490870B6490860B348007862
:1018300040F04000B14908700021B14800F036FC8A
:101840000221AF4800F0F0FA0221AD4800F032FA70
:10185000B048007800F0800000284BD10121A84852
:1018600000F052FAA8B1AB48007800F03F003F28E2
:101870000AD1A848007840F08000A64908704FF6C9
:10188000FF70A549086004E0A2480078401CA14907
:10189000087004219A4800F037FA00287BD09D4850
:1018A000007800F04000402825D19C48006810BB1B
:1018B000934800F020FA984908609648007800F0B4
:1018C0003F00C0EB004009680844944908600020CC
:1018D00090490870904908608E48007840F04000B8
:1018E0008C4908700021864800F0E0FB0021844804
:1018F00000F0FEFA4FE08748007800F040004028F2
:1019000036D18648006890B37D4800F0F4F98249EA
:1019100008608048007800F03F00C0EB0040096894
:1019200008447F4908607D4890ED000AF8EE400ABF
:10193000084690ED000AB8EE400A70EE800A77483B
:1019400090ED000AB8EE400A80EE201A754880ED4E
:10195000001A0020714908606E4908706E490860DD
:101960006C48007840F080006A49087013E0FFE797
:10197000002068490870684908606648007840F0AF
:1019800040006449087000215D4800F08FFB02218F
:101990005B4800F0ADFA0421594800F08BF9624829
:1019A000007800F0800000284BD10121544800F05D
:1019B000ABF9A8B15C48007800F03F003F280AD19D
:1019C0005948007840F08000574908704FF6FF7082
:1019D0005649086004E054480078401C5249087099
:1019E0000821474800F090F900287BD04E48007845
:1019F00000F04000402825D14D48006810BB404809
:101A000000F07CF9494908604748007800F03F0041
:101A1000C0EB00400968084445490860002042497D
:101A20000870424908604048007840F040003E4954
:101A300008700021324800F039FB0021304800F0E6
:101A4000C1FA4FE03848007800F04000402836D115
:101A50003748006890B32A4800F050F933490860CD
:101A60003148007800F03F00C0EB004009680844AE
:101A7000304908602E4890ED000AF8EE400A08460A
:101A800090ED000AB8EE400A70EE800A284890ED0A
:101A9000000AB8EE400A80EE201A274880ED001AAE
:101AA00000202349086020490870204908601E482A
:101AB000007840F080001C49087013E0FFE7002028
:101AC00019490870194908601748007840F040002B
:101AD0001549087000210A4800F0E8FA0221084878
:101AE00000F070FA0821064800F0E4F81348007886
:101AF00000F0800000286ED1012121E00C000020C0
:101B000000040040100000201400002018000020F5
:101B10001C000020200000202400002028000020BD
:101B20002C0000203000002034000020380000206D
:101B30003C0000204000002044000020480000201D
:101B4000504800F0E1F8A8B14F48007800F03F009D
:101B50003F280AD14C48007840F080004A4908707C
:101B60004FF6FF704949086004E047480078401C80
:101B7000454908701021434800F0C6F800287BD082
:101B80004148007800F04000402825D140480068D6
:101B900010BB3C4800F0B5F83C4908603A48007872
:101BA00000F03F00C0EB0040096808443849086075
:101BB000002035490870354908603348007840F006
:101BC00040003149087000212E4800F06FFA0021D2
:101BD0002C4800F049FA4FE02B48007800F0400014
:101BE000402836D12A48006890B3264800F089F88A
:101BF000264908602448007800F03F00C0EB004010
:101C00000968084423490860214890ED000AF8EE6D
:101C1000400A084690ED000AB8EE400A70EE800ACD
:101C20001B4890ED000AB8EE400A80EE201A1A48D0
:101C300080ED001A00201649086013490870134906
:101C400008601148007840F080000F49087013E0E8
:101C5000FFE700200C4908700C4908600A4800782A
:101C600040F04000084908700021064800F01EFAC4
:101C70000221044800F0F8F91121024800F01AF896
:101C800010BD000000040040480000204C0000206F
:101C900050000020540000205800002021B102888C
:101CA00042F08002028004E002884FF67F731A40FF
:101CB00002807047CA430282704721B1028842F015
:101CC0000102028004E002884FF6FE731A4002808F
:101CD000704731B1B0F8442042F40042A0F84420EB
:101CE00005E0B0F84420C2F30E02A0F8442070478B
:101CF0000146486B70470146886B70470146C86BC8
:101D000070470146086C704730B50246002000233A
:101D10000024158A05EA0103958905EA010413B137
:101D20000CB1012000E0002030BD70B505460C4626
:101D3000208850B92389A28861882846FFF7AAF92C
:101D4000E188284600F0B4F925E0208804280AD16B
:101D50002389A28861882846FFF7B9F9E1882846D7
:101D600000F0AFF917E0208808280AD12389A2885B
:101D700061882846FFF7D3F9E188284600F0AEF9DC
:101D800009E02389A28861882846FFF7ECF9E188F9
:101D9000284600F0ACF970BD1AB183890B438381EA
:101DA00002E083898B4383817047000070B5002473
:101DB00000220023058C4FF6FE7635400584028C08
:101DC0008388048B4FF68F752C40B51E2C400D88F0
:101DD0002C43751E2A408D892A434D882A43104D75
:101DE000A84202D00F4DA84213D14FF6F7752A40F2
:101DF000CD892A434FF6FB752A408D882A434FF63A
:101E0000FF652B404FF6FF552B400D8A2B434D8A23
:101E10002B43838004838D684563028470BD00007A
:101E200000000140000401400A460021018C4FF6E9
:101E3000FD7319401143018470470A460021018B4C
:101E40004FF6F773194011430183704770B50024B2
:101E500000220023058C4FF6EF7635400584028C76
:101E60008388048B48F6FF752C404FF6FF452C40C5
:101E70000D884FF6FF7606EA05252C434FF6DF75F1
:101E80002A408D8906EA05152A434D8806EA05157C
:101E90002A43154DA84202D0144DA8421DD14FF639
:101EA0007F752A40CD894FF6FF7606EA05152A434D
:101EB0004FF6BF752A408D8806EA05152A434FF66E
:101EC000FF352B404FF2FF752B400D8A06EA850542
:101ED0002B434D8A06EA85052B43838004838D6856
:101EE0008563028470BD00000000014000040140D1
:101EF0000A460021018C4FF6DF7319404FF6FF733D
:101F000003EA02131943018470470A460021018B3A
:101F10004FF2FF7319404FF6FF7303EA0223194390
:101F20000183704770B5002400220023058C4FF612
:101F3000FF6635400584028C8388848B4FF68F754D
:101F40002C404FF6FC752C400D882C434FF6FF5566
:101F50002A408D894FF6FF7606EA05252A434D88EB
:101F600006EA05252A43154DA84202D0144DA84281
:101F70001DD14FF2FF752A40CD894FF6FF7606EA54
:101F800005252A434FF6FF352A408D8806EA0525A8
:101F90002A434EF6FF752B404DF6FF752B400D8AF8
:101FA00006EA05152B434D8A06EA05152B43838067
:101FB00084838D68C563028470BD00000000014009
:101FC000000401400A460021018C4FF6FF531940DE
:101FD0004FF6FF7303EA02231943018470470A4650
:101FE0000021818B4FF6F7731940114381837047AD
:101FF00070B5002200230024058C4EF6FF76354094
:102000000584038C8488828B48F6FF752A404FF63E
:10201000FF452A400D884FF6FF7606EA05252A433C
:102020004DF6FF752B408D8906EA05352B434D880B
:1020300006EA05352B430A4DA84202D0094DA842B5
:1020400008D14BF6FF752C400D8A4FF6FF7606EA55
:1020500085152C43848082838D680564038470BD5C
:1020600000000140000401400A460021018C4DF6A9
:10207000FF7319404FF6FF7303EA023319430184DB
:1020800070470A460021818B4FF2FF7319404FF6CB
:10209000FF7303EA0223194381837047416370474A
:1020A00081637047C1637047016470474162704744
:1020B000028B4FF6F3731A400283028B0A430283AA
:1020C0007047028B4FF2FF331A400283028B4FF6A8
:1020D000FF7303EA01231A4302837047828B4FF692
:1020E000F3731A408283828B0A4382837047828B08
:1020F0004FF2FF331A408283828B4FF6FF7303EA5D
:1021000001231A438283704700220288184B9842A9
:102110000ED0184B98420BD0B0F1804F08D0164B20
:10212000984205D0154B984202D0154B984204D1E5
:102130004FF68F731A404B881A43124B984207D0C0
:10214000114B984204D04FF6FF431A400B891A43B3
:1021500002804B68C3620B880385054B984202D00E
:10216000044B984201D18B7A038601238382704706
:10217000000001400004014000040040000800404D
:10218000000C0040001000400014004010B540F268
:1021900025511D4800F04AF810B31B4800F000F923
:1021A000C4B21A48008800F40040C8B91748008833
:1021B00000F4804060B10A2C03D00020134908804D
:1021C00020E01248008840F400401049088019E0DF
:1021D0000D2C06D10D48008840F480400B49088042
:1021E00010E00A480088C0F30D0009490C54074864
:1021F0000088401C0549088008460088C72801DD82
:102200000020088010BD00000010014008000020E0
:102210008C00002021B1828942F40052828104E0C6
:1022200082894DF6FF731A408281704770B502466D
:10223000002400230025002040F66A16B14200D198
:1022400000BFC1F3421501F01F03012606FA03F394
:10225000012D02D19689334006E0022D02D1168A63
:10226000334001E0968A33400C12012606FA04F44A
:102270001688344013B10CB1012000E0002070BD7D
:10228000F0B50346002400260025002040F66A171A
:10229000B94200D100BF1846C1F3421401F01F0635
:1022A000012707FA06F5012C01D10C3004E0022CBD
:1022B00001D1103000E014301AB107682F430760D5
:1022C00002E00768AF430760F0BD00002DE9FF475B
:1022D00005460E460024A14600BFA046B08900B1C5
:1022E00000BF2C8A24F44054F08804432C82AC892B
:1022F00041F20C608443B0883189084371890843F6
:102300000443AC81AC8A24F44074B0890443AC82A9
:102310006846FEF78FFC2048854202D01F48854260
:1023200002D1DDF80C9001E0DDF80890A88900F4F6
:10233000004040B109EBC90000EB091031684900C9
:10234000B0FBF1F707E009EBC90000EB09103168B9
:102350008900B0FBF1F76420B7FBF0F0040120091D
:10236000642101FB1078A88900F4004040B13220BC
:1023700000EBC800B0FBF1F000F00700044308E0F8
:10238000322000EB08106421B0FBF1F000F00F00E8
:1023900004432C81BDE8FF87001001400014014078
:1023A00001468888C0F30800704710B51420FEF776
:1023B000B9FD1420FEF7BDFD1420FEF7C1FD142069
:1023C000FEF7C5FD10BD00BFFEE7000070B5044676
:1023D00000251748006820F040601549086008464D
:1023E0000068086000BF134800680028FBD0104850
:1023F000006820F040600E4908600846006840F020
:1024000080600860FEF75AF8F020FEF723F8FEF728
:10241000A1F805460020FEF71DF8FEF79BF82046C0
:10242000FEF718F8FEF796F8FEF76EF870BD00009C
:10243000000C02403482414200BF704710B5044690
:102440006FF00400FEF7DDFDE11704EB5171C1F3FD
:10245000C701074A11701046007800EB4001C1EB3C
:10246000C0104FF6FF7101EAC0000249088010BD9C
:10247000000000200200002070B504464FF40770F1
:1024800094FBF0F0C6B24FF4077094FBF0F100FB40
:10249000114085B205E04FF4077000F02FF8701E70
:1024A000C6B2002EF7D115B1284600F027F870BD4E
:1024B0000146114A12784A434FF0E0235A61002244
:1024C0009A611A46126942F001021A6100BF4FF088
:1024D000E022106900F001021AB100F48032002AF3
:1024E000F5D04FF0E022126922F001024FF0E02314
:1024F0001A6100229A617047000000200146114ACB
:1025000012884A434FF0E0235A6100229A611A462A
:10251000126942F001021A6100BF4FF0E022106917
:1025200000F001021AB100F48032002AF5D04FF019
:10253000E022126922F001024FF0E0231A6100222A
:102540009A617047020000200024FEF78FF9FFF720
:102550002CFFFEF72DFD14240CE02046FEF7E2FCD4
:102560002046FEF7E6FC2046FEF7EAFC2046FEF792
:10257000EEFC641C302CF0D300BFFEE710B588B031
:10258000044601210846FEF7F3FA01211020FEF768
:102590000FFB072209212248FDF711FF07220A211C
:1025A0001F48FDF70CFF4FF4C060069002208DF825
:1025B0001C008DF81D0000208DF81E0001208DF8F4
:1025C0001F0006A91648FDF7B2FE02940020ADF8E0
:1025D0000C00ADF80E00ADF81000ADF814000C20A2
:1025E000ADF8120002A90F48FFF770FE01210D4857
:1025F000FFF710FE012240F225510A48FFF740FE86
:1026000025208DF8040003208DF805008DF80600C4
:1026100001208DF8070001A8FEF708FA08B010BDE8
:1026200000000240001001404FF04070E1EE100A3F
:102630007047000054260008000000208C000000B5
:10264000C4010008E02600088C0000202C070000D0
:10265000E001000800000000000000000000000091
:10266000000000000000000000000000000000006A
:10267000000000000000000000000000000000005A
:10268000000000000000000000000000000000004A
:10269000000000000000000000000000000000003A
:1026A000000000000000000000000000000000002A
:1026B000000000000000000000000000000000001A
:1026C000000000000000000000000000000000000A
:1026D00000000000010203040102030406070809C8
:040000050800018965
:00000001FF
